:02000002D0002C
:1040000000400D006C550D000000DB070D000300A3
:084010000000000000000000A8
:0440180030530D0014
:10401C0009480A49884208B505D0094A824202D0AB
:10402C00121A01F03DF90748074A0021121A01F053
:10403C0045F9014808BD00BF88E60320D4540D00A3
:10404C00F8E60320F8E60320F0E7032070B5074EEE
:10405C00074C00F05BFDA41BA4080025A54200D171
:10406C0070BD56F8043B98470135F7E7AC540D008A
:10407C00D0540D0000F024B808B500F045F8BDE8A8
:10408C00084000F005BD00F03DBA00F03BBA00F06E
:10409C0041BA0078B0FA80F04009704701230370F0
:1040AC0070470EB403B503AB012153F8042B0193F5
:1040BC0000F0DCFD02B05DF804EB03B070470000CB
:1040CC0010B50E4C00F01EFC4FF4165100F00EFC17
:1040DC00204600F036FF204600F0B7FF204600F0E7
:1040EC00C9FF074B0121188801F098F8054BBDE872
:1040FC0010401888012101F091B800BF00E703209F
:10410C0088E603208CE6032038B500F0FBFB114B4E
:10411C00114D1A68114C124901321A60FFF7C1FF98
:10412C002888012101F08BF82088012101F087F803
:10413C004FF4FA6000F042FD2888002101F07FF86E
:10414C002088002101F07BF8BDE838404FF47A70EC
:10415C0000F034BDFCE6032088E603208CE6032047
:10416C0044530D0010B5064C0021204600F0E1FE32
:10417C002046044A0449BDE8104001F079B800BF5C
:10418C0000E70320F8E603207D4F0D0008B5024B35
:10419C001B681B68019308BD4C02030008B5024B59
:1041AC001B685B68019308BD4C02030008B5024B09
:1041BC001B681B69019308BD4C02030008B5024B38
:1041CC001B685B69019308BD4C02030008B5024BE8
:1041DC001B689B69019308BD4C02030008B5024B98
:1041EC001B68DB69019308BD4C02030008B5024B48
:1041FC001B681B6A019308BD4C02030008B5024BF7
:10420C001B68DB68019308BD2802030008B5024B4C
:10421C001B689B69019308BD2802030008B5024B7B
:10422C001B68DB69019308BD2802030008B5024B2B
:10423C001B681B6A019308BD2802030008B5024BDA
:10424C001B685B6A019308BD2802030008B5024B8A
:10425C001B689B6A019308BD2802030008B5024B3A
:10426C001B68DB6A019308BD2802030008B5024BEA
:10427C001B681B6B019308BD2802030008B5024B99
:10428C001B685B6B019308BD2802030008B5024B49
:10429C001B681B6C019308BD2802030008B5024B78
:1042AC001B689B6C019308BD2802030008B5024BE8
:1042BC001B68DB6C019308BD2802030008B5024B98
:1042CC001B681B6D019308BD2802030008B5024B47
:1042DC001B681B68019308BD3C02030008B5024B28
:1042EC001B68DB68019308BD3C02030008B5024B58
:1042FC001B681B69019308BD3C02030008B5024B07
:10430C001B685B69019308BD3C02030008B5024BB6
:10431C001B689B69019308BD3C02030008B5024B66
:10432C001B68DB69019308BD3C02030008B5024B16
:10433C001B681B6A019308BD3C02030008B5024BC5
:10434C001B689B6A019308BD3C02030008B5024B35
:10435C001B685B69019308BD6402030008B5024B3E
:10436C001B685B6C019308BD4802030008B5024B47
:10437C001B689B6C019308BD4802030008B5024BF7
:10438C001B685B68019308BD1802030008B5024B5B
:10439C001B685B69019308BD1802030008B5024B4A
:1043AC001B68DB69019308BD3002030008B5024BA2
:1043BC001B681B6A019308BD3002030008B5024B51
:1043CC001B689B68019308BD2C02030008B5024BC7
:1043DC001B68DB68019308BD2C02030008B5024B77
:1043EC001B681B69019308BD2C02030008B5024B26
:1043FC001B689B68019308BD6802030008B5024B5B
:10440C001B68DB68019308BD6802030008B5024B0A
:10441C001B68DB6B019308BD4402030008B5024B1B
:10442C001B685B68019308BD4002030008B5024B92
:10443C001B689B68019308BD4002030008B5024B42
:10444C001B68DB68019308BD4002030008B5024BF2
:10445C001B681B69019308BD4002030008B5024BA1
:10446C001B685B69019308BD4002030008B5024B51
:10447C001B689B69019308BD4002030008B5024B01
:10448C001B68DB69019308BD4002030008B5024BB1
:10449C001B681B6A019308BD4002030008B5024B60
:1044AC001B681B6B019308BD4002030008B5024B4F
:1044BC001B685B6B019308BD4002030008B5024BFF
:1044CC001B685B68019308BD2002030008B5024B12
:1044DC001B685B69019308BD2002030008B5034B00
:1044EC001B68D3F88830019308BD0000200203003C
:1044FC0008B5034B1B68D3F89430019308BD00003A
:10450C002002030008B5024B1B681B68019308BD11
:10451C001C02030008B5024B1B685B68019308BDC5
:10452C001C02030008B5024B1B685B6A019308BDB3
:10453C001C02030008B5024B1B685B6C019308BDA1
:10454C001C020300002340681A46FFF767BF40684F
:10455C0000220221FFF772BF002240681146FFF7CC
:10456C0065BF002240681146FFF770BF002340680A
:10457C001A461946FFF772BF002340681A461946BF
:10458C00FFF774BF4068002281F00101FFF776BF8E
:10459C0040680022FFF782BF002240681146FFF7F7
:1045AC0085BF002240681146FFF770BF2DE9F0432C
:1045BC00002495B016460D46074600F007FA214632
:1045CC0018220EA8009400F079FE4023CDE90C349B
:1045DC0021466B460CAA3046FFF710FF0446002814
:1045EC0046D1024601216868FFF730FF0221804660
:1045FC0022466868FFF72AFF009E81462146002E5E
:10460C0036D0002934D17368022B03D00A2B0BD07F
:10461C00F669F4E7B8F1000F04D07169384604313B
:10462C0000F001FA4146F3E7B9F1000F01D1494618
:10463C00EEE77469102201A800F040FE06238DF805
:10464C00143001AD04F108031834186859682A466F
:10465C0003C20833A3421546F7D101A906A807AD3A
:10466C0000F0C2F90FCD3C1D0FC42B682370DEE7A0
:10467C000098FFF7BBFE384615B0BDE8F08300008C
:10468C00024B034A1A6000225A60704704E7032069
:10469C0058530D007047F8B5064615460C468F1852
:1046AC00BC4206D0336814F8011B9B68304698470F
:1046BC00F6E72846F8BD007C0022FFF7B7BD007C6A
:1046CC000021FFF7BBBD007C0021FFF7BFBD007CC4
:1046DC000021FFF7C3BD007C0021FFF7C7BD10B55B
:1046EC001421044600F0C9FD204610BD10B54FF44E
:1046FC007A73044608460021C4E90113034B236076
:10470C0020741146FFF7C2FD204610BD8C530D00DE
:10471C000023007C1A461946FFF770BD7FB50022B6
:10472C001423CDE90122ADF804300B788DF8083054
:10473C004B680393CB680493007C0B7A059301A917
:10474C00FFF7BCFD07B05DF804FB7FB50023CDE996
:10475C0001334A6803921423CA68ADF804300B780D
:10476C0004920A7A0592007C8DF8083001AA194649
:10477C00FFF74CFD07B05DF804FB007C0022FFF74F
:10478C004DBD007C0021FFF779BD08B50021007CF0
:10479C00FFF784FDB0FA80F0400908BD08B5002190
:1047AC00007CFFF783FDB0FA80F0400908BD0022C1
:1047BC0040681146FFF74ABE002240681146FFF7D9
:1047CC0065BE002240681146FFF770BE40680022AB
:1047DC00FFF764BE4068002281F00101FFF74EBE76
:1047EC00002340681A461946FFF740BE0023406874
:1047FC001A461946FFF732BE002240681146FFF7F1
:10480C0015BE406800220221FFF718BE0023406845
:10481C001A46FFF703BE0000084B10B528242246A9
:10482C001846002100F04AFD054B04804FF0FF3282
:10483C00426004225A60034A1A6010BD14E7032038
:10484C000CE70320B4530D0041747047704708B552
:10485C000021007CFFF7BAFC40EAE07008BD08B507
:10486C000121007CFFF7B2FC40EAE07008BD08B5FE
:10487C00007CFFF7A3FC20EAE07008BD08B5007CC3
:10488C00FFF794FC20EAE07008BD13B50446007CE9
:10489C000191FFF793FC0028019901DC607C20B1A9
:1048AC00207CFFF79BFC20EAE07002B010BD007C7E
:1048BC00FFF79CBC10B51421044600F0DEFC20462A
:1048CC0010BD000010B54FF47A7304460846002161
:1048DC00C4E90113044B2360012320746374114653
:1048EC00FFF754FC204610BDE8530D00007C00225D
:1048FC00FFF754BC10B514220446002100F0DEFC76
:10490C00204610BD10B5104C88B003A8FFF7F2FF7D
:10491C002178BFF35B8F11F0010111D12046019179
:10492C00FFF7B7FB019958B103AA0848FFF7CAFF74
:10493C002046FFF7B3FB064A0649044800F098FCF2
:10494C00024808B010BD00BF3CE7032040E703203D
:10495C00F8E6032059480D00704710B5182104469D
:10496C0000F08BFC204610BDF0B5037D062B8DB0FE
:10497C000E4600F104074FF0000412D000F10805B8
:10498C0015F8011D0A22304600F052F9AF420444DA
:10499C0019D0002CF4D02E21304600F03AF9044402
:1049AC00EEE72F236A4639460A208DF80040FFF7C0
:1049BC00CDFC684600F0AEFC33680246DB68694605
:1049CC0030469847044620460DB0F0BD10B5054B57
:1049DC000446112240F8043B002100F06FFC2046F5
:1049EC0010BD00BF18540D000346074A10B543F81C
:1049FC00042B01F1100251F8044B43F8044B914283
:104A0C00F9D10A781A7010BD18540D0010B59DF824
:104A1C00084044EA032343EA024242EA01610423C8
:104A2C004160037510BD13B5CB7800938B784A7831
:104A3C000978FFF7EBFF02B010BD10B58368044690
:104A4C0013B1032201469847204610BD014B186054
:104A5C00704700BF94E6032008B50B4B43B1FFF73A
:104A6C0051FF03681B699847002801DDAFF30080F4
:104A7C00064B43B100F09CF903681B69984700286A
:104A8C0001DDAFF3008008BD000000000000000055
:104A9C0008B5FFF7E1FFFFF779FC014B186008BD83
:104AAC00E0E703200248034A0349121A00F0F8BB5E
:104ABC0000F4032004F40320D0540D0007B50023A8
:104ACC0000931A466FF07701FFF712FD03B05DF803
:104ADC0004FB000007B543880A2B08D0502B0BD1E0
:104AEC00094B1B684BB103B05DF804EB1847FFF79B
:104AFC00E5FF03B05DF804FB002300931A466FF04A
:104B0C007701FFF7F5FCF4E758E7032038B5124CB2
:104B1C001248134D0021FFF70DFD2368AB42114BDA
:104B2C000CBF012200221A7002D0FFF7BBFF2560D8
:104B3C00FFF724FC044600F0C9FB0B4B13B12046D5
:104B4C00AFF3008000210848FFF760FCBDE8384057
:104B5C0006480021FFF7C2BC00F40320594A0D009F
:104B6C001E1C279A54E7032000000000E14A0D00A8
:104B7C0010B50446FFF761FF204610BD0348044AF8
:104B8C0004490023836000F073BB00BF5CE7032083
:104B9C00F8E603207D4B0D00024B1A68024B1A609D
:104BAC00704700BF90E603206CE70320014B024ADC
:104BBC001A60704770E7032040540D000021FFF786
:104BCC0085BCF8B506460D468F180024BD420CD0A6
:104BDC00336815F8011B9B6830469847031E01DBB0
:104BEC001C44F3E7002C08BF1C462046F8BD13B547
:104BFC000446084659B1019100F08CFB23680199D9
:104C0C00DB680246204602B0BDE81040184702B0EF
:104C1C0010BD03689B68184738B50D210546FFF792
:104C2C00F8FF0A2104462846FFF7F3FF204438BD5D
:104C3C0030B58BB000238DF82430012A98BF0A229E
:104C4C0009AC0D46B1FBF2F101FB125303F0FF036B
:104C5C00092B94BF30333733DBB2AA4204F8013D41
:104C6C00EFD92146FFF7C3FF0BB030BD2DE9F04162
:104C7C0086B000AF05460E46381D142114463B6025
:104C8C00FFF750FC13280ED8391D2846FFF7AFFF4D
:104C9C0004461EB12846FFF7BFFF044420461837D0
:104CAC00BD46BDE8F08100F1080323F00703E84698
:104CBC00ADEB030D2246411C3B686846FFF732FC06
:104CCC0069462846FFF793FF0446C546E1E710B551
:104CDC000446006808B1FFF749FB204610BD0000F0
:104CEC0010B5064C002320462360FFF737FB204607
:104CFC00034A0449BDE8104000F0BABA74E7032037
:104D0C00F8E60320DB4C0D0070474174704708B582
:104D1C00007CFFF713FB20EAE07008BD08B5007CAF
:104D2C00FFF7E4FA20EAE07008BD08B5007CFFF755
:104D3C00EDFA40EAE07008BD08B5007CFFF7DEFA3A
:104D4C0040EAE07008BD007CFFF7E8BA37B5457C57
:104D5C0004462DB1207C03B0BDE83040FFF7BEBA4D
:104D6C00007C0191FFF7EAFA00280199F2DC284651
:104D7C0003B030BD10B51421044600F07EFA204675
:104D8C0010BD000010B54FF0000C0446084611464B
:104D9C004FF47A72C4E901C2044A226001222074E1
:104DAC0062741A46FFF792FA204610BD4C540D005F
:104DBC00F7B51B4C26684EB98420FFF764F90546FD
:104DCC0018B18422314600F079FA2560154D2F6810
:104DDC004FB98420FFF757F9064618B1842239469B
:104DEC0000F06CFA2E60104E3178BFF35B8F11F02F
:104DFC00010112D130460191FFF74BF9019960B1D5
:104E0C0022682B680948FFF7BDFF3046FFF746F9CB
:104E1C00074A0849054800F02BFA044803B0F0BDD6
:104E2C007CE7032080E7032078E7032084E7032056
:104E3C00F8E60320154D0D0010B50446006818B1B6
:104E4C00FFF768FB0023236010BD10B50446FFF785
:104E5C00F3FF204610BD000010B5094B094C02228F
:104E6C0000201A60084B2060A080A071A360FFF79F
:104E7C0025FB2046054A0649BDE8104000F0F8B96C
:104E8C00A4E7032098E703200000FFFFF8E60320C7
:104E9C00574E0D0010B5044608462170FFF77EFAF8
:104EAC0000236360204610BD002240681146FFF7C6
:104EBC00EDBA002240681146FFF7F8BA40680022AC
:104ECC00FFF7ECBA4068002281F00101FFF7D6BA77
:104EDC00002340681A461946FFF7C8BA00234068F9
:104EEC001A461946FFF7BABA002240681146FFF776
:104EFC00ADBA002240681146FFF798BA406800220C
:104F0C000221FFF79BBA002340681A46FFF786BAC6
:104F1C00024B03225A60024A1A607047A8E703202A
:104F2C007C540D0008B500F013F9BDE80840FFF7FC
:104F3C002CBC10B50446017009B1FFF7F3FF2046F5
:104F4C0010BD08B500F004F9FFF71BFC18B900F010
:104F5C00FFF8FFF7DDFB00F0FBF8BDE80840FFF7BA
:104F6C0010BC08B500F0F4F8BDE80840FFF716BC1B
:104F7C0010B5037804460BB1FFF7F3FF204610BDC4
:104F8C0010B504460068FFF7ECFF204610BD30B5A5
:104F9C0087B00D460190FFF7C5FF6B238DF80830E5
:104FAC000023012403930A2305938DF8104000F08D
:104FBC00CFF802A9FFF7C9FB00F0CAF8036829462D
:104FCC009B68984700F0C4F82146FFF7D6FB039482
:104FDC0000F0BEF802A9FFF7A1FB00F0B9F80368D6
:104FEC005B699847044601A8FFF7CAFFE0B207B017
:104FFC0030BD70B586B014460D460190FFF792FF98
:10500C006B238DF808300023039301260A230593A4
:10501C008DF8106000F09CF802A9FFF796FB00F0E9
:10502C0097F8036829469B68984700F091F8036845
:10503C0021469B68984700F08BF83146FFF79DFBA3
:10504C0001A8FFF79DFF06B070BD13B50446019093
:10505C00FFF768FF01212046FFF799FF012100F0BF
:10506C00CF022046FFF7C5FF01A8FFF789FF0120FB
:10507C0002B010BD13B504460190FFF753FF072192
:10508C002046FFF784FF40F02000C2B207212046E3
:10509C00FFF7AFFF01A8FFF773FF012002B010BDAF
:1050AC0038B50023202543801423044603808560F3
:1050BC0005610649284600F0E2F80449606028467C
:1050CC0000F0DDF8E060204638BD00BFA8540D00AC
:1050DC0038B50023202543801423044603808560C3
:1050EC0005610649284600F0CAF804496060284664
:1050FC0000F0C5F8E060204638BD00BFA8540D0094
:10510C0030B50F4D2978BFF35B8F11F0010487B0D8
:10511C0013D12846FEF7BDFF78B101A8FFF7C0FFF9
:10512C0001AA21460748FFF7E1FA2846FEF7B6FF29
:10513C00054A0649034800F09BF8024807B030BD09
:10514C00B0E70320B8E70320F8E60320A1460D00E2
:10515C0010B50F4C2378BFF35B8FDB0786B013D4ED
:10516C002046FEF796FF78B101A8FFF7B1FF01AA20
:10517C0001210848FFF7BAFA2046FEF78FFF064ACE
:10518C000649044800F074F8024806B010BD00BF90
:10519C00B4E70320CCE70320F8E60320A1460D007A
:1051AC00232813B502D9002002B010BDA0F10B03C7
:1051BC00022B1AD8174C2178BFF35B8F11F0010129
:1051CC000BD120460191FEF764FF019928B11248DA
:1051DC00FFF760FE2046FEF761FF0F4B1878FFF7D4
:1051EC00E5F80028DFD10120DEE7012809D8FFF718
:1051FC0087FF0021007CFFF741F880F00100C0B26E
:10520C00D2E709380128EED8FFF7D2FD007CFFF772
:10521C008DF8F2E7E4E70320E8E70320232838B50C
:10522C0004460D460AD8FF2908D0FFF7B9FF28B16C
:10523C0029462046BDE83840FFF7C0B838BD38B520
:10524C0004460D46FFF7C2F8FF2810D0062804D8F4
:10525C004D2323FA00F0C30709D42046FFF7A0FF23
:10526C0028B129462046BDE83840FFF7B7B838BD0D
:10527C000B460146184600F005B8FEF708BFFEF7CE
:10528C0004BF000010B5054C13462CB10A4601466C
:10529C000220AFF3008010BD2046FCE700000000A8
:1052AC000A44914200F1FF3300D1704710B511F858
:1052BC00014B03F8014F9142F9D110BD0244034652
:1052CC00934200D1704703F8011BF9E738B50D4B39
:1052DC001D68AB6B04467BB91820FFF713F90A4A1B
:1052EC000A4BA863C0E90023094B83600B2383811D
:1052FC0001220023C0E90423AB6B00221C615A611C
:10530C0038BD00BF94E603200E33CDAB34126DE6EE
:10531C00ECDE0500034613F8012B002AFBD1181A0A
:10532C00013870471D400D0059400D0081400D00A3
:10533C0085400D000000000074657374696E672071
:10534C0025640000000000000000000051450D0025
:10535C005B450D0065450D006F450D0079450D0051
:10536C0085450D0091450D009D450D00A5450D0091
:10537C00AF450D00B9450D00000000000000000015
:10538C00A1460D00EB460D00C3460D00A3460D00D3
:10539C00CB460D00D3460D00DB460D00E3460D0059
:1053AC00000000000000000019480D000F480D001F
:1053BC0005480D00BB470D00F9470D00ED470D00EA
:1053CC00E1470D00D9470D00CF470D00C5470D0033
:1053DC00B9450D00000000000000000059480D0008
:1053EC00C1480D0097480D00CF4B0D0089480D00AA
:1053FC005B480D006B480D00BB480D007B480D0051
:10540C0055480D00000000000000000075490D001B
:10541C0065490D0067490D0025592D256D2D256415
:10542C005425483A254D3A2553257A006173637407
:10543C00696D6500617070000000000000000000E4
:10544C00154D0D00814D0D00594D0D00CF4B0D002C
:10545C00294D0D00454D0D00374D0D00534D0D00E0
:10546C00174D0D001B4D0D0000000000000000004A
:10547C00134F0D00094F0D00FF4E0D00F54E0D00A2
:10548C00E94E0D00DD4E0D00D14E0D00C94E0D0044
:10549C00BF4E0D00B54E0D00B9450D0000000000CB
:1054AC0071410D008D460D0025480D00894B0D00F6
:1054BC00A54B0D00B94B0D00ED4C0D00654E0D00CC
:0454CC001D4F0D0063
:0454D00000000000D8
:1054D400020000000700000038540D0098E6032085
:1054E40000000000000000000000000000000000B8
:1054F40000000000000000000000000000000000A8
:105504000000000000000000000000000000000097
:105514000000000000000000000000000000000087
:105524000000000000000000000000000000000077
:105534000000000000000000000000000000000067
:10554400FFFFFFFF00000102030405060708090A24
:105554000B0C0D0E0F101112131415161718191A1F
:085564001B1C1D1E1F20280066
:04556C007856341227
:04000003D000401CCD
:00000001FF
